{
    "contractName": "LightPad",
    "abi": [
        {
            "inputs": [
                {
                    "internalType": "address",
                    "name": "_owner",
                    "type": "address"
                },
                {
                    "internalType": "address",
                    "name": "_airnodeRrp",
                    "type": "address"
                },
                {
                    "internalType": "address",
                    "name": "_lightPadToken",
                    "type": "address"
                }
            ],
            "stateMutability": "nonpayable",
            "type": "constructor"
        },
        {
            "inputs": [
                {
                    "internalType": "address",
                    "name": "target",
                    "type": "address"
                }
            ],
            "name": "AddressEmptyCode",
            "type": "error"
        },
        {
            "inputs": [
                {
                    "internalType": "address",
                    "name": "account",
                    "type": "address"
                }
            ],
            "name": "AddressInsufficientBalance",
            "type": "error"
        },
        {
            "inputs": [],
            "name": "FailedInnerCall",
            "type": "error"
        },
        {
            "inputs": [
                {
                    "internalType": "address",
                    "name": "owner",
                    "type": "address"
                }
            ],
            "name": "OwnableInvalidOwner",
            "type": "error"
        },
        {
            "inputs": [
                {
                    "internalType": "address",
                    "name": "account",
                    "type": "address"
                }
            ],
            "name": "OwnableUnauthorizedAccount",
            "type": "error"
        },
        {
            "inputs": [
                {
                    "internalType": "address",
                    "name": "token",
                    "type": "address"
                }
            ],
            "name": "SafeERC20FailedOperation",
            "type": "error"
        },
        {
            "anonymous": false,
            "inputs": [
                {
                    "components": [
                        {
                            "internalType": "bool",
                            "name": "isOpen",
                            "type": "bool"
                        },
                        {
                            "internalType": "bool",
                            "name": "isEnded",
                            "type": "bool"
                        },
                        {
                            "internalType": "string",
                            "name": "projectName",
                            "type": "string"
                        },
                        {
                            "internalType": "address",
                            "name": "tokenAddr",
                            "type": "address"
                        },
                        {
                            "internalType": "uint256",
                            "name": "pricePerToken",
                            "type": "uint256"
                        },
                        {
                            "internalType": "uint256",
                            "name": "maxTokensAvailable",
                            "type": "uint256"
                        },
                        {
                            "internalType": "uint256",
                            "name": "whitelistLimit",
                            "type": "uint256"
                        },
                        {
                            "internalType": "address[]",
                            "name": "investors",
                            "type": "address[]"
                        }
                    ],
                    "indexed": false,
                    "internalType": "struct LightPad.ProjectInfor",
                    "name": "",
                    "type": "tuple"
                }
            ],
            "name": "NewLauchPadCreated",
            "type": "event"
        },
        {
            "anonymous": false,
            "inputs": [
                {
                    "indexed": true,
                    "internalType": "address",
                    "name": "previousOwner",
                    "type": "address"
                },
                {
                    "indexed": true,
                    "internalType": "address",
                    "name": "newOwner",
                    "type": "address"
                }
            ],
            "name": "OwnershipTransferred",
            "type": "event"
        },
        {
            "anonymous": false,
            "inputs": [
                {
                    "indexed": false,
                    "internalType": "uint256",
                    "name": "projectId",
                    "type": "uint256"
                }
            ],
            "name": "TokenSaleOpened",
            "type": "event"
        },
        {
            "inputs": [],
            "name": "airnode",
            "outputs": [
                {
                    "internalType": "address",
                    "name": "",
                    "type": "address"
                }
            ],
            "stateMutability": "view",
            "type": "function"
        },
        {
            "inputs": [],
            "name": "airnodeRrp",
            "outputs": [
                {
                    "internalType": "contract IAirnodeRrpV0",
                    "name": "",
                    "type": "address"
                }
            ],
            "stateMutability": "view",
            "type": "function"
        },
        {
            "inputs": [
                {
                    "components": [
                        {
                            "internalType": "bool",
                            "name": "isOpen",
                            "type": "bool"
                        },
                        {
                            "internalType": "bool",
                            "name": "isEnded",
                            "type": "bool"
                        },
                        {
                            "internalType": "string",
                            "name": "projectName",
                            "type": "string"
                        },
                        {
                            "internalType": "address",
                            "name": "tokenAddr",
                            "type": "address"
                        },
                        {
                            "internalType": "uint256",
                            "name": "pricePerToken",
                            "type": "uint256"
                        },
                        {
                            "internalType": "uint256",
                            "name": "maxTokensAvailable",
                            "type": "uint256"
                        },
                        {
                            "internalType": "uint256",
                            "name": "whitelistLimit",
                            "type": "uint256"
                        },
                        {
                            "internalType": "address[]",
                            "name": "investors",
                            "type": "address[]"
                        }
                    ],
                    "internalType": "struct LightPad.ProjectInfor",
                    "name": "projectInfor",
                    "type": "tuple"
                }
            ],
            "name": "createLaunchPad",
            "outputs": [],
            "stateMutability": "nonpayable",
            "type": "function"
        },
        {
            "inputs": [],
            "name": "endpointIdUint256Array",
            "outputs": [
                {
                    "internalType": "bytes32",
                    "name": "",
                    "type": "bytes32"
                }
            ],
            "stateMutability": "view",
            "type": "function"
        },
        {
            "inputs": [
                {
                    "internalType": "uint256",
                    "name": "projectId",
                    "type": "uint256"
                }
            ],
            "name": "enterLaunchPad",
            "outputs": [],
            "stateMutability": "nonpayable",
            "type": "function"
        },
        {
            "inputs": [
                {
                    "internalType": "uint256",
                    "name": "projectId",
                    "type": "uint256"
                }
            ],
            "name": "openProjectForSale",
            "outputs": [],
            "stateMutability": "nonpayable",
            "type": "function"
        },
        {
            "inputs": [],
            "name": "owner",
            "outputs": [
                {
                    "internalType": "address",
                    "name": "",
                    "type": "address"
                }
            ],
            "stateMutability": "view",
            "type": "function"
        },
        {
            "inputs": [],
            "name": "renounceOwnership",
            "outputs": [],
            "stateMutability": "nonpayable",
            "type": "function"
        },
        {
            "inputs": [
                {
                    "internalType": "address",
                    "name": "_airnode",
                    "type": "address"
                },
                {
                    "internalType": "bytes32",
                    "name": "_endpointIdUint256Array",
                    "type": "bytes32"
                },
                {
                    "internalType": "address",
                    "name": "_sponsorWallet",
                    "type": "address"
                }
            ],
            "name": "setAPI3RequestParameters",
            "outputs": [],
            "stateMutability": "nonpayable",
            "type": "function"
        },
        {
            "inputs": [],
            "name": "sponsorWallet",
            "outputs": [
                {
                    "internalType": "address",
                    "name": "",
                    "type": "address"
                }
            ],
            "stateMutability": "view",
            "type": "function"
        },
        {
            "inputs": [
                {
                    "internalType": "address",
                    "name": "newOwner",
                    "type": "address"
                }
            ],
            "name": "transferOwnership",
            "outputs": [],
            "stateMutability": "nonpayable",
            "type": "function"
        }
    ],
    "bytecode": "60c060405234801561000f575f80fd5b5060405162000fb238038062000fb28339810160408190526100309161014b565b6001600160a01b0382166080819052604051632b77c09f60e21b8152306004820152600160248201528491849163addf027c906044015f604051808303815f87803b15801561007d575f80fd5b505af115801561008f573d5f803e3d5ffd5b5050506001600160a01b03831691506100c3905057604051631e4fbdf760e01b81525f600482015260240160405180910390fd5b6100cc816100e1565b506001600160a01b031660a0525061018b9050565b5f80546001600160a01b038381166001600160a01b0319831681178455604051919092169283917f8be0079c531659141344cd1fd0a4f28419497f9722a3daafe3b4186f6b6457e09190a35050565b80516001600160a01b0381168114610146575f80fd5b919050565b5f805f6060848603121561015d575f80fd5b61016684610130565b925061017460208501610130565b915061018260408501610130565b90509250925092565b60805160a051610e06620001ac5f395f6103d001525f60cc0152610e065ff3fe608060405234801561000f575f80fd5b50600436106100a6575f3560e01c8063a36ff4d81161006e578063a36ff4d814610132578063a7cb1e6214610145578063bf90fb4e14610158578063d7ce051a1461016b578063e16150aa1461017e578063f2fde38b14610191575f80fd5b806304e1da47146100aa578063715018a6146100bf57806371bab666146100c75780638da5cb5b1461010b578063a19954af1461011b575b5f80fd5b6100bd6100b8366004610853565b6101a4565b005b6100bd6101e0565b6100ee7f000000000000000000000000000000000000000000000000000000000000000081565b6040516001600160a01b0390911681526020015b60405180910390f35b5f546001600160a01b03166100ee565b61012460025481565b604051908152602001610102565b6001546100ee906001600160a01b031681565b6100bd61015336600461088c565b6101f3565b6003546100ee906001600160a01b031681565b6100bd61017936600461088c565b610250565b6100bd61018c366004610a1a565b61040c565b6100bd61019f366004610af7565b61050c565b6101ac61054e565b600180546001600160a01b039485166001600160a01b03199182161790915560029290925560038054919093169116179055565b6101e861054e565b6101f15f61057a565b565b6101fb61054e565b5f8181526004602052604090819020805460ff19166001179055517f6e016c64b13e8ebbab86ee0f3fda0c55257fb740ab225bd2403215655f9c122f906102459083815260200190565b60405180910390a150565b5f81815260046020908152604080832081516101008082018452825460ff8082161515845291900416151593810193909352600181018054919284019161029690610b10565b80601f01602080910402602001604051908101604052809291908181526020018280546102c290610b10565b801561030d5780601f106102e45761010080835404028352916020019161030d565b820191905f5260205f20905b8154815290600101906020018083116102f057829003601f168201915b50505050508152602001600282015f9054906101000a90046001600160a01b03166001600160a01b03166001600160a01b03168152602001600382015481526020016004820154815260200160058201548152602001600682018054806020026020016040519081016040528092919081815260200182805480156103b957602002820191905f5260205f20905b81546001600160a01b0316815260019091019060200180831161039b575b5050505050815250509050610408333083608001517f00000000000000000000000000000000000000000000000000000000000000006001600160a01b03166105c9909392919063ffffffff16565b5050565b61041461054e565b6005545f90815260046020908152604091829020835181549285015161ffff1990931690151561ff00191617610100921515929092029190911781559082015182919060018201906104669082610b93565b5060608201516002820180546001600160a01b0319166001600160a01b039092169190911790556080820151600382015560a0820151600482015560c0820151600582015560e082015180516104c69160068401916020909101906107c1565b50506005805491505f6104d883610c53565b91905055507fb7d3e2a11971f1e585e7df19da1f377049c9c839294e6205ba422e2b775c6742816040516102459190610d07565b61051461054e565b6001600160a01b03811661054257604051631e4fbdf760e01b81525f60048201526024015b60405180910390fd5b61054b8161057a565b50565b5f546001600160a01b031633146101f15760405163118cdaa760e01b8152336004820152602401610539565b5f80546001600160a01b038381166001600160a01b0319831681178455604051919092169283917f8be0079c531659141344cd1fd0a4f28419497f9722a3daafe3b4186f6b6457e09190a35050565b604080516001600160a01b0385811660248301528416604482015260648082018490528251808303909101815260849091019091526020810180516001600160e01b03166323b872dd60e01b179052610623908590610629565b50505050565b5f61063d6001600160a01b0384168361068f565b905080515f1415801561066157508080602001905181019061065f9190610d9a565b155b1561068a57604051635274afe760e01b81526001600160a01b0384166004820152602401610539565b505050565b606061069c83835f6106a3565b9392505050565b6060814710156106c85760405163cd78605960e01b8152306004820152602401610539565b5f80856001600160a01b031684866040516106e39190610db5565b5f6040518083038185875af1925050503d805f811461071d576040519150601f19603f3d011682016040523d82523d5f602084013e610722565b606091505b509150915061073286838361073c565b9695505050505050565b6060826107515761074c82610798565b61069c565b815115801561076857506001600160a01b0384163b155b1561079157604051639996b31560e01b81526001600160a01b0385166004820152602401610539565b508061069c565b8051156107a85780518082602001fd5b604051630a12f52160e11b815260040160405180910390fd5b828054828255905f5260205f20908101928215610814579160200282015b8281111561081457825182546001600160a01b0319166001600160a01b039091161782556020909201916001909101906107df565b50610820929150610824565b5090565b5b80821115610820575f8155600101610825565b80356001600160a01b038116811461084e575f80fd5b919050565b5f805f60608486031215610865575f80fd5b61086e84610838565b92506020840135915061088360408501610838565b90509250925092565b5f6020828403121561089c575f80fd5b5035919050565b634e487b7160e01b5f52604160045260245ffd5b604051610100810167ffffffffffffffff811182821017156108db576108db6108a3565b60405290565b604051601f8201601f1916810167ffffffffffffffff8111828210171561090a5761090a6108a3565b604052919050565b801515811461054b575f80fd5b803561084e81610912565b5f82601f830112610939575f80fd5b813567ffffffffffffffff811115610953576109536108a3565b610966601f8201601f19166020016108e1565b81815284602083860101111561097a575f80fd5b816020850160208301375f918101602001919091529392505050565b5f82601f8301126109a5575f80fd5b8135602067ffffffffffffffff8211156109c1576109c16108a3565b8160051b6109d08282016108e1565b92835284810182019282810190878511156109e9575f80fd5b83870192505b84831015610a0f57610a0083610838565b825291830191908301906109ef565b979650505050505050565b5f60208284031215610a2a575f80fd5b813567ffffffffffffffff80821115610a41575f80fd5b908301906101008286031215610a55575f80fd5b610a5d6108b7565b610a668361091f565b8152610a746020840161091f565b6020820152604083013582811115610a8a575f80fd5b610a968782860161092a565b604083015250610aa860608401610838565b60608201526080830135608082015260a083013560a082015260c083013560c082015260e083013582811115610adc575f80fd5b610ae887828601610996565b60e08301525095945050505050565b5f60208284031215610b07575f80fd5b61069c82610838565b600181811c90821680610b2457607f821691505b602082108103610b4257634e487b7160e01b5f52602260045260245ffd5b50919050565b601f82111561068a57805f5260205f20601f840160051c81016020851015610b6d5750805b601f840160051c820191505b81811015610b8c575f8155600101610b79565b5050505050565b815167ffffffffffffffff811115610bad57610bad6108a3565b610bc181610bbb8454610b10565b84610b48565b602080601f831160018114610bf4575f8415610bdd5750858301515b5f19600386901b1c1916600185901b178555610c4b565b5f85815260208120601f198616915b82811015610c2257888601518255948401946001909101908401610c03565b5085821015610c3f57878501515f19600388901b60f8161c191681555b505060018460011b0185555b505050505050565b5f60018201610c7057634e487b7160e01b5f52601160045260245ffd5b5060010190565b5f5b83811015610c91578181015183820152602001610c79565b50505f910152565b5f8151808452610cb0816020860160208601610c77565b601f01601f19169290920160200192915050565b5f815180845260208085019450602084015f5b83811015610cfc5781516001600160a01b031687529582019590820190600101610cd7565b509495945050505050565b602081528151151560208201525f6020830151610d28604084018215159052565b506040830151610100806060850152610d45610120850183610c99565b91506060850151610d6160808601826001600160a01b03169052565b50608085015160a085015260a085015160c085015260c085015160e085015260e0850151601f1985840301828601526107328382610cc4565b5f60208284031215610daa575f80fd5b815161069c81610912565b5f8251610dc6818460208701610c77565b919091019291505056fea26469706673582212204bc07c887c65cf0009e5a94c24ba8581e4facd8d7829693f02c6b15596e3c78864736f6c63430008160033",
    "sourcePath": "/Users/terrrancrypt/Work/lightlinkpad/contracts/src/LightPad.sol",
    "compiler": {
        "name": "solc",
        "version": "0.8.22+commit.4fc1097e"
    },
    "functionHashes": {
        "airnode()": "a36ff4d8",
        "airnodeRrp()": "71bab666",
        "createLaunchPad((bool,bool,string,address,uint256,uint256,uint256,address[]))": "e16150aa",
        "endpointIdUint256Array()": "a19954af",
        "enterLaunchPad(uint256)": "d7ce051a",
        "openProjectForSale(uint256)": "a7cb1e62",
        "owner()": "8da5cb5b",
        "renounceOwnership()": "715018a6",
        "setAPI3RequestParameters(address,bytes32,address)": "04e1da47",
        "sponsorWallet()": "bf90fb4e",
        "transferOwnership(address)": "f2fde38b"
    },
    "gasEstimates": {
        "creation": {
            "codeDepositCost": "718000",
            "executionCost": "infinite",
            "totalCost": "infinite"
        },
        "external": {
            "airnode()": "2325",
            "airnodeRrp()": "infinite",
            "createLaunchPad((bool,bool,string,address,uint256,uint256,uint256,address[]))": "infinite",
            "endpointIdUint256Array()": "2383",
            "enterLaunchPad(uint256)": "infinite",
            "openProjectForSale(uint256)": "27773",
            "owner()": "2385",
            "renounceOwnership()": "infinite",
            "setAPI3RequestParameters(address,bytes32,address)": "infinite",
            "sponsorWallet()": "2369",
            "transferOwnership(address)": "28439"
        }
    }
}